:020000040000FA
:100000000C945D000C9485000C9485000C94850084
:100010000C9485000C9485000C9485000C9485004C
:100020000C9485000C9485000C9485000C9485003C
:100030000C9485000C9485000C9485000C9485002C
:100040000C948C020C9485000C94FC020C94D60247
:100050000C9485000C9485000C9485000C9485000C
:100060000C9485000C94850000000008000201003B
:100070000003040700000000000000000000000072
:10008000250028002B0000000000240027002A0083
:10009000040404040404040402020202020203032E
:1000A0000303030301020408102040800102040836
:1000B0001020010204081020690411241FBECFEF94
:1000C000D8E0DEBFCDBF11E0A0E0B1E0ECE3F9E0A5
:1000D00002C005900D92A231B107D9F721E0A2E14B
:1000E000B1E001C01D92AD3FB207E1F710E0CDE5F0
:1000F000D0E004C02197FE010E949604CC35D107C0
:10010000C9F70E942E030C949C040C9400006031EB
:10011000A8F4403198F450E0440F551FFC01E40F5F
:10012000F51F8081918121E030E002C0220F331F52
:100130006A95E2F7282B392B31832083089590E0CC
:10014000FC01EC55FF4F249180579F4FFC01849197
:10015000882399F090E0880F991FFC01EA57FF4F20
:10016000A591B491FC01E458FF4F859194918FB70C
:10017000F894EC91E22BEC938FBF089590E0FC0192
:10018000E859FF4F2491FC01EC55FF4F3491FC01DD
:10019000E057FF4FE491EE23C9F0222339F02330DA
:1001A00001F1A8F4213019F1223029F1F0E0EE0F2D
:1001B000FF1FE458FF4FA591B4918FB7F894EC91CD
:1001C000611126C030953E233C938FBF08952730A0
:1001D000A9F02830C9F0243049F7809180008F7D44
:1001E00003C0809180008F7780938000DFCF84B53B
:1001F0008F7784BDDBCF84B58F7DFBCF8091B0003E
:100200008F778093B000D2CF8091B0008F7DF9CFEF
:100210003E2BDACFAF92BF92CF92DF92EF92FF9256
:100220000F931F93CF93DF936C017B018B01040F1E
:10023000151FEB015E01AE18BF08C017D10759F0BA
:100240006991D601ED91FC910190F081E02DC601FC
:100250000995892B79F7C501DF91CF911F910F91F6
:10026000FF90EF90DF90CF90BF90AF900895FC018A
:10027000538D448D252F30E0842F90E0821B930B0B
:10028000541710F0CF96089501970895FC01918DB1
:10029000828D981761F0A28DAE0FBF2FB11D5D96B4
:1002A0008C91928D9F5F9F73928F90E008958FEF56
:1002B0009FEF0895FC01918D828D981731F0828D0A
:1002C000E80FF11D858D90E008958FEF9FEF089561
:1002D000FC01918D228D892F90E0805C9F4F821BC5
:1002E00091098F739927089582E191E00E94680136
:1002F00021E0892B09F420E0822F089580E090E02E
:10030000892B29F00E94740181110C94000008953A
:10031000FC01A48DA80FB92FB11DA35ABF4F2C917A
:10032000848D90E001968F739927848FA689B78971
:100330002C93A089B1898C91837080648C93938D68
:10034000848D981306C00288F389E02D80818F7D0B
:1003500080830895EF92FF920F931F93CF93DF93C3
:10036000EC0181E0888F9B8D8C8D98131AC0E889F1
:10037000F989808185FF15C09FB7F894EE89FF89C0
:100380006083E889F98980818370806480839FBF5E
:1003900081E090E0DF91CF911F910F91FF90EF905E
:1003A0000895F62E0B8D10E00F5F1F4F0F7311276E
:1003B000E02E8C8D8E110CC00FB607FCFACFE889A9
:1003C000F989808185FFF5CFCE010E948801F1CFA8
:1003D000EB8DEC0FFD2FF11DE35AFF4FF0829FB71D
:1003E000F8940B8FEA89FB8980818062CFCFCF930D
:1003F000DF93EC01888D8823B9F0AA89BB89E8894D
:10040000F9898C9185FD03C0808186FD0DC00FB6F2
:1004100007FCF7CF8C9185FFF2CF808185FFEDCF70
:10042000CE010E948801E9CFDF91CF9108959C0110
:10043000205E3F4FFC01118210823296CF01E217FD
:10044000F307C1F70895EF92FF920F931F93CF9395
:10045000DF938C01C62FD0E067E070E07B01EC1ADF
:10046000FD0A28960E941702C031D10514F0CFE092
:10047000D0E0B701F7FC60E0F62ED62F4F2D6D2FA0
:10048000C8010E9487004C2F6D2FC8010E94870071
:10049000DF5FCD1798F7DF2D4D2F6F2DC8010E941C
:1004A00087004D2F6C2FC8010E948700DF5FCD179A
:1004B00098F7DF91CF911F910F91FF90EF900895E2
:1004C000CF92DF92EF92FF92CF93DF936B017C018B
:1004D000842F8150990BEC01D701C6010C2E04C06A
:1004E000B695A795979587950A94D2F7682F61706E
:1004F00088E00E94BE0061E089E00E94BE0060E0EA
:1005000089E00E94BE00219738F7DF91CF91FF90DC
:10051000EF90DF90CF9008951F920F920FB60F9239
:1005200011242F933F938F939F93AF93BF93809109
:10053000F9019091FA01A091FB01B091FC01309179
:10054000F80123E0230F2D3758F50196A11DB11DA9
:100550002093F8018093F9019093FA01A093FB0195
:10056000B093FC018091F4019091F501A091F60106
:10057000B091F7010196A11DB11D8093F4019093F4
:10058000F501A093F601B093F701BF91AF919F9150
:100590008F913F912F910F900FBE0F901F90189544
:1005A00026E8230F0296A11DB11DD2CF1F920F92F4
:1005B0000FB60F9211242F933F934F935F936F9336
:1005C0007F938F939F93AF93BF93EF93FF9382E1BA
:1005D00091E00E948801FF91EF91BF91AF919F91AF
:1005E0008F917F916F915F914F913F912F910F90DC
:1005F0000FBE0F901F9018951F920F920FB60F927B
:1006000011242F938F939F93EF93FF93E0912201F7
:10061000F09123018081E0912801F091290182FD70
:100620001BC0908180912B018F5F8F7320912C01D3
:10063000821741F0E0912B01F0E0EE5EFE4F958FC6
:1006400080932B01FF91EF919F918F912F910F90AC
:100650000FBE0F901F9018958081F4CF789484B5C9
:10066000826084BD84B5816084BD85B5826085BDAE
:1006700085B5816085BD80916E00816080936E003C
:10068000109281008091810082608093810080912E
:1006900081008160809381008091800081608093DF
:1006A00080008091B10084608093B1008091B0009F
:1006B00081608093B00080917A00846080937A009A
:1006C00080917A00826080937A0080917A008160C4
:1006D00080937A0080917A00806880937A001092EB
:1006E000C100E0912201F091230182E08083E0913A
:1006F0001E01F0911F011082E0912001F091210173
:1007000080E1808310922A01E0912601F091270177
:1007100086E08083E0912401F09125018081806151
:100720008083E0912401F09125018081886080839D
:10073000E0912401F0912501808180688083E0911F
:100740002401F091250180818F7D808388E00E94C3
:100750009F0089E00E949F008AE00E949F008BE03A
:100760000E949F0060E088E00E94BE0060E089E097
:100770000E94BE0060E08AE00E94BE0061E08BE063
:100780000E94BE008FEC91E00E9417028FEA91E078
:100790000E94170201E010E04BE7E42E4CE0F42E3B
:1007A00057E0752E60E0C62E60E0D62E912C812C8D
:1007B00061E08BE00E94BE00C401880F991FFC011C
:1007C000E153FE4FA080B18081559E4FFC016081B6
:1007D0007181E801082C02C0CC0FDD1F0A94E2F7FA
:1007E00090E080E040E10E946002B50190E080E08E
:1007F00040E10E9460026D2F772790E080E048E0A2
:100800000E9460026C2F70E090E080E048E00E945F
:10081000600261E08AE00E94BE0060E08AE00E941F
:10082000BE0060E08BE00E94BE00C7010197F1F7B7
:100830002FEF821A920A80E18816910409F0B8CF4E
:100840002FB7F8948091F9019091FA01A091FB01E2
:10085000B091FC012FBF4091F0015091F1016091E6
:10086000F2017091F3014C015D01841A950AA60A08
:10087000B70AB501A4014937510561057105D0F0EA
:100880008093F0019093F101A093F201B093F301F2
:10089000C091EF016C2F8FEC91E00E942302672D35
:1008A0006C1B8FEA91E00E942302CF5FC83070F486
:1008B000C093EF01C114D10409F478CF0E947401F0
:1008C000882309F473CF0E94000070CF1092EF01CB
:1008D000F1CFE2E1F1E01382128288EE93E0A0E032
:1008E000B0E084839583A683B78384E091E091830D
:1008F000808385EC90E09587848784EC90E09787EF
:10090000868780EC90E0918B808B81EC90E0938BDC
:10091000828B82EC90E0958B848B86EC90E0978BB9
:10092000868B118E128E138E148E0895EE0FFF1F7C
:100930000590F491E02D0994F894FFCF0000000099
:0E094000AA010A013701F701680146015A01B8
:107E0000112484B714BE81FFF0D085E080938100F7
:107E100082E08093C00088E18093C10086E0809377
:107E2000C20080E18093C4008EE0C9D0259A86E02C
:107E300020E33CEF91E0309385002093840096BBD3
:107E4000B09BFECF1D9AA8958150A9F7CC24DD24C4
:107E500088248394B5E0AB2EA1E19A2EF3E0BF2EE7
:107E6000A2D0813461F49FD0082FAFD0023811F036
:107E7000013811F484E001C083E08DD089C08234E0
:107E800011F484E103C0853419F485E0A6D080C0E4
:107E9000853579F488D0E82EFF2485D0082F10E0AE
:107EA000102F00270E291F29000F111F8ED06801E7
:107EB0006FC0863521F484E090D080E0DECF843638
:107EC00009F040C070D06FD0082F6DD080E0C81688
:107ED00080E7D80618F4F601B7BEE895C0E0D1E017
:107EE00062D089930C17E1F7F0E0CF16F0E7DF06D8
:107EF00018F0F601B7BEE89568D007B600FCFDCFD4
:107F0000A601A0E0B1E02C9130E011968C91119780
:107F100090E0982F8827822B932B1296FA010C0160
:107F200087BEE89511244E5F5F4FF1E0A038BF0790
:107F300051F7F601A7BEE89507B600FCFDCF97BE46
:107F4000E89526C08437B1F42ED02DD0F82E2BD052
:107F50003CD0F601EF2C8F010F5F1F4F84911BD097
:107F6000EA94F801C1F70894C11CD11CFA94CF0C13
:107F7000D11C0EC0853739F428D08EE10CD085E9AC
:107F80000AD08FE07ACF813511F488E018D01DD067
:107F900080E101D065CF982F8091C00085FFFCCF94
:107FA0009093C60008958091C00087FFFCCF809118
:107FB000C00084FD01C0A8958091C6000895E0E648
:107FC000F0E098E1908380830895EDDF803219F02E
:107FD00088E0F5DFFFCF84E1DECF1F93182FE3DFCA
:107FE0001150E9F7F2DF1F91089580E0E8DFEE27F6
:047FF000FF270994CA
:027FFE00040479
:00000001FF
